:100000000C9434000C9449000C9449000C94490061
:100010000C9449000C9449000C9449000C9449003C
:100020000C9449000C9449000C9449000C9449002C
:100030000C9449000C9449000C9449000C9449001C
:100040000C9449000C9449000C9449000C9449000C
:100050000C9449000C9449000C9449000C944900FC
:100060000C9449000C94490011241FBECFEFD8E036
:10007000DEBFCDBF11E0A0E0B1E0EAE6F3E002C0F0
:1000800005900D92A630B107D9F70E9429010C9472
:10009000B3010C9400005E9A00C05E980895CF935F
:1000A000DF93D82F662311F05C9A01C05C985D98AD
:1000B0008AB18F608AB9CBB1C07F8D2F82958F7046
:1000C0008C2B8BB90E944B00DF70DC2BDBB90E94BC
:1000D0004B00CF60CBB9DF91CF910895882311F009
:1000E0005C9A01C05C985D9A8AB1807F8AB95E9AF9
:1000F00000C029B15E9800C05E9A00C099B12295F7
:10010000207F892F8F705E98822B089580E00E9457
:100110006E008823DCF388E090E00197F1F780E03F
:100120000E946E000895CF93C82F0E94860060E061
:100130008C2F0E944F00CF910895611104C0805808
:100140000E949300089580540E949300089581E0D6
:100150000E949300089582E00E9493000895CF9337
:10016000C82F0E948600CA3049F4803410F080E025
:1001700001C080E480580E94930004C061E08C2F8D
:100180000E944F00CF910895CF93DF93EC01219609
:10019000FC018081882329F00E94AF0089918111A0
:1001A000FBCFDF91CF9108951F93CF93DF93182F4B
:1001B0009AB19F679AB9E0E0FAEF3197F1F7599A4F
:1001C000589A0E944B00E0E0FEE43197F1F70E945C
:1001D0004B00C0E0D1E0FE013197F1F70E944B00E7
:1001E000FE013197F1F758980E944B002197F1F7E3
:1001F00088E20E94930088E00E9493000E94A7007A
:1002000086E00E949300812F0E949300DF91CF919E
:100210001F910895ECE7F0E0808180648083EAE735
:10022000F0E08081876880830895ECE7F0E09081BA
:100230008770987F892B8083EAE7F0E08081806473
:100240008083808186FDFDCF809178009091790038
:100250000895CF93DF93CDB7DEB7A8970FB6F89484
:10026000DEBF0FBECDBF0E940A018CE00E94D40009
:100270000E94A7000E94AB0080E00E9415017C0153
:1002800081E00E9415018C014AE050E0BE016F5FE1
:100290007F4FC70192500E9473014AE050E0BE01B7
:1002A0006B5E7F4FC80192500E94730180E091E025
:1002B0000E94C40060E082E00E949D00CE01019691
:1002C0000E94C40060E087E00E949D0083E091E00E
:1002D0000E94C40060E089E00E949D00CE01459626
:1002E0000E94C400C7CF4532510520F4423010F0BF
:1002F0000C947E01FB011082CB010895BB274A308C
:1003000031F4992322F4BDE2909581959F4F0C948E
:100310008A01BB27FB015527AA27880F991FAA1F0F
:10032000A41710F0A41B83955051B9F7A05DAA3310
:1003300008F0A95DA193009779F7B111B1931192DB
:10034000CB010C94A301DC01FC01672F7191772391
:10035000E1F7329704C07C916D9370836291AE1780
:0A036000BF07C8F30895F894FFCF1B
:06036A00783D00793D0022
:00000001FF
